{
  "contractName": "HealthMonitor",
  "abi": [
    {
      "inputs": [],
      "stateMutability": "nonpayable",
      "type": "constructor"
    },
    {
      "inputs": [
        {
          "internalType": "uint256",
          "name": "",
          "type": "uint256"
        }
      ],
      "name": "ambulanceList",
      "outputs": [
        {
          "internalType": "address",
          "name": "",
          "type": "address"
        }
      ],
      "stateMutability": "view",
      "type": "function",
      "constant": true
    },
    {
      "inputs": [
        {
          "internalType": "address",
          "name": "",
          "type": "address"
        }
      ],
      "name": "ambulanceRanks",
      "outputs": [
        {
          "internalType": "uint256",
          "name": "",
          "type": "uint256"
        }
      ],
      "stateMutability": "view",
      "type": "function",
      "constant": true
    },
    {
      "inputs": [
        {
          "internalType": "uint256",
          "name": "",
          "type": "uint256"
        }
      ],
      "name": "doctorList",
      "outputs": [
        {
          "internalType": "address",
          "name": "",
          "type": "address"
        }
      ],
      "stateMutability": "view",
      "type": "function",
      "constant": true
    },
    {
      "inputs": [
        {
          "internalType": "address",
          "name": "",
          "type": "address"
        },
        {
          "internalType": "uint256",
          "name": "",
          "type": "uint256"
        }
      ],
      "name": "doctorPatients",
      "outputs": [
        {
          "internalType": "address",
          "name": "",
          "type": "address"
        }
      ],
      "stateMutability": "view",
      "type": "function",
      "constant": true
    },
    {
      "inputs": [
        {
          "internalType": "address",
          "name": "",
          "type": "address"
        }
      ],
      "name": "doctors",
      "outputs": [
        {
          "internalType": "bool",
          "name": "",
          "type": "bool"
        }
      ],
      "stateMutability": "view",
      "type": "function",
      "constant": true
    },
    {
      "inputs": [],
      "name": "owner",
      "outputs": [
        {
          "internalType": "address",
          "name": "",
          "type": "address"
        }
      ],
      "stateMutability": "view",
      "type": "function",
      "constant": true
    },
    {
      "inputs": [
        {
          "internalType": "address",
          "name": "",
          "type": "address"
        }
      ],
      "name": "patients",
      "outputs": [
        {
          "internalType": "bool",
          "name": "registered",
          "type": "bool"
        },
        {
          "internalType": "string",
          "name": "name",
          "type": "string"
        },
        {
          "internalType": "uint256",
          "name": "age",
          "type": "uint256"
        },
        {
          "internalType": "bool",
          "name": "ambulanceNeeded",
          "type": "bool"
        },
        {
          "internalType": "address",
          "name": "assignedAmbulance",
          "type": "address"
        },
        {
          "internalType": "address",
          "name": "assignedDoctor",
          "type": "address"
        }
      ],
      "stateMutability": "view",
      "type": "function",
      "constant": true
    },
    {
      "inputs": [
        {
          "internalType": "string",
          "name": "name",
          "type": "string"
        },
        {
          "internalType": "uint256",
          "name": "age",
          "type": "uint256"
        }
      ],
      "name": "registerPatient",
      "outputs": [],
      "stateMutability": "nonpayable",
      "type": "function"
    },
    {
      "inputs": [
        {
          "internalType": "address",
          "name": "doctor",
          "type": "address"
        }
      ],
      "name": "registerDoctor",
      "outputs": [],
      "stateMutability": "nonpayable",
      "type": "function"
    },
    {
      "inputs": [
        {
          "internalType": "address",
          "name": "_ambulance",
          "type": "address"
        },
        {
          "internalType": "uint256",
          "name": "rank",
          "type": "uint256"
        }
      ],
      "name": "registerAmbulance",
      "outputs": [],
      "stateMutability": "nonpayable",
      "type": "function"
    },
    {
      "inputs": [
        {
          "internalType": "bool",
          "name": "criticalCondition",
          "type": "bool"
        }
      ],
      "name": "handleHealthCondition",
      "outputs": [],
      "stateMutability": "nonpayable",
      "type": "function"
    },
    {
      "inputs": [
        {
          "internalType": "address",
          "name": "patientAddress",
          "type": "address"
        }
      ],
      "name": "getPatientInfo",
      "outputs": [
        {
          "internalType": "string",
          "name": "name",
          "type": "string"
        },
        {
          "internalType": "uint256",
          "name": "age",
          "type": "uint256"
        },
        {
          "internalType": "bool",
          "name": "ambulanceNeeded",
          "type": "bool"
        },
        {
          "internalType": "address",
          "name": "assignedAmbulance",
          "type": "address"
        },
        {
          "internalType": "address",
          "name": "assignedDoctor",
          "type": "address"
        }
      ],
      "stateMutability": "view",
      "type": "function",
      "constant": true
    },
    {
      "inputs": [],
      "name": "getAvailableDoctors",
      "outputs": [
        {
          "internalType": "address[]",
          "name": "",
          "type": "address[]"
        }
      ],
      "stateMutability": "view",
      "type": "function",
      "constant": true
    },
    {
      "inputs": [],
      "name": "getAssignedPatients",
      "outputs": [
        {
          "internalType": "address[]",
          "name": "",
          "type": "address[]"
        }
      ],
      "stateMutability": "view",
      "type": "function",
      "constant": true
    },
    {
      "inputs": [],
      "name": "getAssignedPatientCount",
      "outputs": [
        {
          "internalType": "uint256",
          "name": "",
          "type": "uint256"
        }
      ],
      "stateMutability": "view",
      "type": "function",
      "constant": true
    },
    {
      "inputs": [],
      "name": "getAmbulances",
      "outputs": [
        {
          "internalType": "address[]",
          "name": "",
          "type": "address[]"
        },
        {
          "internalType": "uint256[]",
          "name": "",
          "type": "uint256[]"
        }
      ],
      "stateMutability": "view",
      "type": "function",
      "constant": true
    },
    {
      "inputs": [],
      "name": "getDoctors",
      "outputs": [
        {
          "internalType": "address[]",
          "name": "",
          "type": "address[]"
        }
      ],
      "stateMutability": "view",
      "type": "function",
      "constant": true
    }
  ],
  "bytecode": "0x608060405234801561001057600080fd5b50336000806101000a81548173ffffffffffffffffffffffffffffffffffffffff021916908373ffffffffffffffffffffffffffffffffffffffff160217905550612279806100606000396000f3fe608060405234801561001057600080fd5b506004361061010b5760003560e01c80634ac9e300116100a25780638da5cb5b116100715780638da5cb5b146102e557806395b9d75c14610303578063a9583c2214610321578063b13d5d9414610351578063e76cc71b1461036f5761010b565b80634ac9e300146102495780634b4261781461027957806362870882146102ad578063699ca998146102c95761010b565b806320ff82dd116100de57806320ff82dd146101c35780632c384c41146101df5780632de304ed146101fd57806347fd95b1146102195761010b565b80630869cfbc14610110578063127ca4b41461014557806317a388cf146101755780631d5d282814610193575b600080fd5b61012a60048036038101906101259190611959565b61038e565b60405161013c96959493929190611def565b60405180910390f35b61015f600480360381019061015a9190611a3b565b6104ac565b60405161016c9190611d60565b60405180910390f35b61017d6104eb565b60405161018a9190611d7b565b60405180910390f35b6101ad60048036038101906101a89190611a3b565b610579565b6040516101ba9190611d60565b60405180910390f35b6101dd60048036038101906101d891906119be565b6105b8565b005b6101e76108a0565b6040516101f49190611f51565b60405180910390f35b610217600480360381019061021291906119e7565b610976565b005b610233600480360381019061022e9190611959565b610b03565b6040516102409190611f51565b60405180910390f35b610263600480360381019061025e9190611982565b610b1b565b6040516102709190611d60565b60405180910390f35b610293600480360381019061028e9190611959565b610b69565b6040516102a4959493929190611e57565b60405180910390f35b6102c760048036038101906102c29190611982565b610cb9565b005b6102e360048036038101906102de9190611959565b610df2565b005b6102ed610fcb565b6040516102fa9190611d60565b60405180910390f35b61030b610fef565b6040516103189190611d7b565b60405180910390f35b61033b60048036038101906103369190611959565b611146565b6040516103489190611dd4565b60405180910390f35b610359611166565b6040516103669190611d7b565b60405180910390f35b6103776111f4565b604051610385929190611d9d565b60405180910390f35b60056020528060005260406000206000915090508060000160009054906101000a900460ff16908060010180546103c4906120e5565b80601f01602080910402602001604051908101604052809291908181526020018280546103f0906120e5565b801561043d5780601f106104125761010080835404028352916020019161043d565b820191906000526020600020905b81548152906001019060200180831161042057829003601f168201915b5050505050908060020154908060030160009054906101000a900460ff16908060030160019054906101000a900473ffffffffffffffffffffffffffffffffffffffff16908060040160009054906101000a900473ffffffffffffffffffffffffffffffffffffffff16905086565b600181815481106104bc57600080fd5b906000526020600020016000915054906101000a900473ffffffffffffffffffffffffffffffffffffffff1681565b6060600180548060200260200160405190810160405280929190818152602001828054801561056f57602002820191906000526020600020905b8160009054906101000a900473ffffffffffffffffffffffffffffffffffffffff1673ffffffffffffffffffffffffffffffffffffffff1681526020019060010190808311610525575b5050505050905090565b6002818154811061058957600080fd5b906000526020600020016000915054906101000a900473ffffffffffffffffffffffffffffffffffffffff1681565b600560003373ffffffffffffffffffffffffffffffffffffffff1673ffffffffffffffffffffffffffffffffffffffff16815260200190815260200160002060000160009054906101000a900460ff16610647576040517f08c379a000000000000000000000000000000000000000000000000000000000815260040161063e90611f11565b60405180910390fd5b6000600560003373ffffffffffffffffffffffffffffffffffffffff1673ffffffffffffffffffffffffffffffffffffffff1681526020019081526020016000209050811561089c5760018160030160006101000a81548160ff021916908315150217905550600073ffffffffffffffffffffffffffffffffffffffff168160030160019054906101000a900473ffffffffffffffffffffffffffffffffffffffff1673ffffffffffffffffffffffffffffffffffffffff1614156107515761070e611410565b8160030160016101000a81548173ffffffffffffffffffffffffffffffffffffffff021916908373ffffffffffffffffffffffffffffffffffffffff1602179055505b600073ffffffffffffffffffffffffffffffffffffffff168160040160009054906101000a900473ffffffffffffffffffffffffffffffffffffffff1673ffffffffffffffffffffffffffffffffffffffff16141561089b5760006107b46115fd565b9050808260040160006101000a81548173ffffffffffffffffffffffffffffffffffffffff021916908373ffffffffffffffffffffffffffffffffffffffff160217905550600660008273ffffffffffffffffffffffffffffffffffffffff1673ffffffffffffffffffffffffffffffffffffffff168152602001908152602001600020339080600181540180825580915050600190039060005260206000200160009091909190916101000a81548173ffffffffffffffffffffffffffffffffffffffff021916908373ffffffffffffffffffffffffffffffffffffffff160217905550505b5b5050565b6000600360003373ffffffffffffffffffffffffffffffffffffffff1673ffffffffffffffffffffffffffffffffffffffff16815260200190815260200160002060009054906101000a900460ff1661092e576040517f08c379a000000000000000000000000000000000000000000000000000000000815260040161092590611eb1565b60405180910390fd5b600660003373ffffffffffffffffffffffffffffffffffffffff1673ffffffffffffffffffffffffffffffffffffffff16815260200190815260200160002080549050905090565b600560003373ffffffffffffffffffffffffffffffffffffffff1673ffffffffffffffffffffffffffffffffffffffff16815260200190815260200160002060000160009054906101000a900460ff1615610a06576040517f08c379a00000000000000000000000000000000000000000000000000000000081526004016109fd90611ef1565b60405180910390fd5b6001600560003373ffffffffffffffffffffffffffffffffffffffff1673ffffffffffffffffffffffffffffffffffffffff16815260200190815260200160002060000160006101000a81548160ff02191690831515021790555081600560003373ffffffffffffffffffffffffffffffffffffffff1673ffffffffffffffffffffffffffffffffffffffff1681526020019081526020016000206001019080519060200190610ab792919061180f565b5080600560003373ffffffffffffffffffffffffffffffffffffffff1673ffffffffffffffffffffffffffffffffffffffff168152602001908152602001600020600201819055505050565b60046020528060005260406000206000915090505481565b60066020528160005260406000208181548110610b3757600080fd5b906000526020600020016000915091509054906101000a900473ffffffffffffffffffffffffffffffffffffffff1681565b60606000806000806000600560008873ffffffffffffffffffffffffffffffffffffffff1673ffffffffffffffffffffffffffffffffffffffff16815260200190815260200160002090508060010181600201548260030160009054906101000a900460ff168360030160019054906101000a900473ffffffffffffffffffffffffffffffffffffffff168460040160009054906101000a900473ffffffffffffffffffffffffffffffffffffffff16848054610c25906120e5565b80601f0160208091040260200160405190810160405280929190818152602001828054610c51906120e5565b8015610c9e5780601f10610c7357610100808354040283529160200191610c9e565b820191906000526020600020905b815481529060010190602001808311610c8157829003601f168201915b50505050509450955095509550955095505091939590929450565b60008054906101000a900473ffffffffffffffffffffffffffffffffffffffff1673ffffffffffffffffffffffffffffffffffffffff163373ffffffffffffffffffffffffffffffffffffffff1614610d47576040517f08c379a0000000000000000000000000000000000000000000000000000000008152600401610d3e90611ed1565b60405180910390fd5b80600460008473ffffffffffffffffffffffffffffffffffffffff1673ffffffffffffffffffffffffffffffffffffffff168152602001908152602001600020819055506002829080600181540180825580915050600190039060005260206000200160009091909190916101000a81548173ffffffffffffffffffffffffffffffffffffffff021916908373ffffffffffffffffffffffffffffffffffffffff1602179055505050565b60008054906101000a900473ffffffffffffffffffffffffffffffffffffffff1673ffffffffffffffffffffffffffffffffffffffff163373ffffffffffffffffffffffffffffffffffffffff1614610e80576040517f08c379a0000000000000000000000000000000000000000000000000000000008152600401610e7790611ed1565b60405180910390fd5b600360008273ffffffffffffffffffffffffffffffffffffffff1673ffffffffffffffffffffffffffffffffffffffff16815260200190815260200160002060009054906101000a900460ff1615610f0d576040517f08c379a0000000000000000000000000000000000000000000000000000000008152600401610f0490611f31565b60405180910390fd5b6001600360008373ffffffffffffffffffffffffffffffffffffffff1673ffffffffffffffffffffffffffffffffffffffff16815260200190815260200160002060006101000a81548160ff0219169083151502179055506001819080600181540180825580915050600190039060005260206000200160009091909190916101000a81548173ffffffffffffffffffffffffffffffffffffffff021916908373ffffffffffffffffffffffffffffffffffffffff16021790555050565b60008054906101000a900473ffffffffffffffffffffffffffffffffffffffff1681565b6060600360003373ffffffffffffffffffffffffffffffffffffffff1673ffffffffffffffffffffffffffffffffffffffff16815260200190815260200160002060009054906101000a900460ff1661107d576040517f08c379a000000000000000000000000000000000000000000000000000000000815260040161107490611eb1565b60405180910390fd5b600660003373ffffffffffffffffffffffffffffffffffffffff1673ffffffffffffffffffffffffffffffffffffffff16815260200190815260200160002080548060200260200160405190810160405280929190818152602001828054801561113c57602002820191906000526020600020905b8160009054906101000a900473ffffffffffffffffffffffffffffffffffffffff1673ffffffffffffffffffffffffffffffffffffffff16815260200190600101908083116110f2575b5050505050905090565b60036020528060005260406000206000915054906101000a900460ff1681565b606060018054806020026020016040519081016040528092919081815260200182805480156111ea57602002820191906000526020600020905b8160009054906101000a900473ffffffffffffffffffffffffffffffffffffffff1673ffffffffffffffffffffffffffffffffffffffff16815260200190600101908083116111a0575b5050505050905090565b606080600060028054905067ffffffffffffffff81111561123e577f4e487b7100000000000000000000000000000000000000000000000000000000600052604160045260246000fd5b60405190808252806020026020018201604052801561126c5781602001602082028036833780820191505090505b50905060005b60028054905081101561137b5760046000600283815481106112bd577f4e487b7100000000000000000000000000000000000000000000000000000000600052603260045260246000fd5b9060005260206000200160009054906101000a900473ffffffffffffffffffffffffffffffffffffffff1673ffffffffffffffffffffffffffffffffffffffff1673ffffffffffffffffffffffffffffffffffffffff1681526020019081526020016000205482828151811061135c577f4e487b7100000000000000000000000000000000000000000000000000000000600052603260045260246000fd5b602002602001018181525050808061137390612117565b915050611272565b506002818180548060200260200160405190810160405280929190818152602001828054801561140057602002820191906000526020600020905b8160009054906101000a900473ffffffffffffffffffffffffffffffffffffffff1673ffffffffffffffffffffffffffffffffffffffff16815260200190600101908083116113b6575b5050505050915092509250509091565b600080600090506000805b6002805490508110156115f457826004600060028481548110611467577f4e487b7100000000000000000000000000000000000000000000000000000000600052603260045260246000fd5b9060005260206000200160009054906101000a900473ffffffffffffffffffffffffffffffffffffffff1673ffffffffffffffffffffffffffffffffffffffff1673ffffffffffffffffffffffffffffffffffffffff1681526020019081526020016000205411156115e1576004600060028381548110611511577f4e487b7100000000000000000000000000000000000000000000000000000000600052603260045260246000fd5b9060005260206000200160009054906101000a900473ffffffffffffffffffffffffffffffffffffffff1673ffffffffffffffffffffffffffffffffffffffff1673ffffffffffffffffffffffffffffffffffffffff168152602001908152602001600020549250600281815481106115b3577f4e487b7100000000000000000000000000000000000000000000000000000000600052603260045260246000fd5b9060005260206000200160009054906101000a900473ffffffffffffffffffffffffffffffffffffffff1691505b80806115ec90612117565b91505061141b565b50809250505090565b6000807fffffffffffffffffffffffffffffffffffffffffffffffffffffffffffffffff90506000805b60018054905081101561180657826006600060018481548110611673577f4e487b7100000000000000000000000000000000000000000000000000000000600052603260045260246000fd5b9060005260206000200160009054906101000a900473ffffffffffffffffffffffffffffffffffffffff1673ffffffffffffffffffffffffffffffffffffffff1673ffffffffffffffffffffffffffffffffffffffff1681526020019081526020016000208054905010156117f3576006600060018381548110611720577f4e487b7100000000000000000000000000000000000000000000000000000000600052603260045260246000fd5b9060005260206000200160009054906101000a900473ffffffffffffffffffffffffffffffffffffffff1673ffffffffffffffffffffffffffffffffffffffff1673ffffffffffffffffffffffffffffffffffffffff168152602001908152602001600020805490509250600181815481106117c5577f4e487b7100000000000000000000000000000000000000000000000000000000600052603260045260246000fd5b9060005260206000200160009054906101000a900473ffffffffffffffffffffffffffffffffffffffff1691505b80806117fe90612117565b915050611627565b50809250505090565b82805461181b906120e5565b90600052602060002090601f01602090048101928261183d5760008555611884565b82601f1061185657805160ff1916838001178555611884565b82800160010185558215611884579182015b82811115611883578251825591602001919060010190611868565b5b5090506118919190611895565b5090565b5b808211156118ae576000816000905550600101611896565b5090565b60006118c56118c084611f9d565b611f6c565b9050828152602081018484840111156118dd57600080fd5b6118e88482856120a3565b509392505050565b6000813590506118ff816121fe565b92915050565b60008135905061191481612215565b92915050565b600082601f83011261192b57600080fd5b813561193b8482602086016118b2565b91505092915050565b6000813590506119538161222c565b92915050565b60006020828403121561196b57600080fd5b6000611979848285016118f0565b91505092915050565b6000806040838503121561199557600080fd5b60006119a3858286016118f0565b92505060206119b485828601611944565b9150509250929050565b6000602082840312156119d057600080fd5b60006119de84828501611905565b91505092915050565b600080604083850312156119fa57600080fd5b600083013567ffffffffffffffff811115611a1457600080fd5b611a208582860161191a565b9250506020611a3185828601611944565b9150509250929050565b600060208284031215611a4d57600080fd5b6000611a5b84828501611944565b91505092915050565b6000611a708383611a94565b60208301905092915050565b6000611a888383611d42565b60208301905092915050565b611a9d8161205b565b82525050565b611aac8161205b565b82525050565b6000611abd82611fed565b611ac78185612028565b9350611ad283611fcd565b8060005b83811015611b03578151611aea8882611a64565b9750611af58361200e565b925050600181019050611ad6565b5085935050505092915050565b6000611b1b82611ff8565b611b258185612039565b9350611b3083611fdd565b8060005b83811015611b61578151611b488882611a7c565b9750611b538361201b565b925050600181019050611b34565b5085935050505092915050565b611b778161206d565b82525050565b6000611b8882612003565b611b92818561204a565b9350611ba28185602086016120b2565b611bab816121ed565b840191505092915050565b6000611bc360238361204a565b91507f4f6e6c7920646f63746f72732063616e2063616c6c20746869732066756e637460008301527f696f6e00000000000000000000000000000000000000000000000000000000006020830152604082019050919050565b6000611c2960218361204a565b91507f4f6e6c79206f776e65722063616e2063616c6c20746869732066756e6374696f60008301527f6e000000000000000000000000000000000000000000000000000000000000006020830152604082019050919050565b6000611c8f60128361204a565b91507f416c7265616479207265676973746572656400000000000000000000000000006000830152602082019050919050565b6000611ccf60168361204a565b91507f50617469656e74206e6f742072656769737465726564000000000000000000006000830152602082019050919050565b6000611d0f60198361204a565b91507f446f63746f7220616c72656164792072656769737465726564000000000000006000830152602082019050919050565b611d4b81612099565b82525050565b611d5a81612099565b82525050565b6000602082019050611d756000830184611aa3565b92915050565b60006020820190508181036000830152611d958184611ab2565b905092915050565b60006040820190508181036000830152611db78185611ab2565b90508181036020830152611dcb8184611b10565b90509392505050565b6000602082019050611de96000830184611b6e565b92915050565b600060c082019050611e046000830189611b6e565b8181036020830152611e168188611b7d565b9050611e256040830187611d51565b611e326060830186611b6e565b611e3f6080830185611aa3565b611e4c60a0830184611aa3565b979650505050505050565b600060a0820190508181036000830152611e718188611b7d565b9050611e806020830187611d51565b611e8d6040830186611b6e565b611e9a6060830185611aa3565b611ea76080830184611aa3565b9695505050505050565b60006020820190508181036000830152611eca81611bb6565b9050919050565b60006020820190508181036000830152611eea81611c1c565b9050919050565b60006020820190508181036000830152611f0a81611c82565b9050919050565b60006020820190508181036000830152611f2a81611cc2565b9050919050565b60006020820190508181036000830152611f4a81611d02565b9050919050565b6000602082019050611f666000830184611d51565b92915050565b6000604051905081810181811067ffffffffffffffff82111715611f9357611f926121be565b5b8060405250919050565b600067ffffffffffffffff821115611fb857611fb76121be565b5b601f19601f8301169050602081019050919050565b6000819050602082019050919050565b6000819050602082019050919050565b600081519050919050565b600081519050919050565b600081519050919050565b6000602082019050919050565b6000602082019050919050565b600082825260208201905092915050565b600082825260208201905092915050565b600082825260208201905092915050565b600061206682612079565b9050919050565b60008115159050919050565b600073ffffffffffffffffffffffffffffffffffffffff82169050919050565b6000819050919050565b82818337600083830152505050565b60005b838110156120d05780820151818401526020810190506120b5565b838111156120df576000848401525b50505050565b600060028204905060018216806120fd57607f821691505b602082108114156121115761211061218f565b5b50919050565b600061212282612099565b91507fffffffffffffffffffffffffffffffffffffffffffffffffffffffffffffffff82141561215557612154612160565b5b600182019050919050565b7f4e487b7100000000000000000000000000000000000000000000000000000000600052601160045260246000fd5b7f4e487b7100000000000000000000000000000000000000000000000000000000600052602260045260246000fd5b7f4e487b7100000000000000000000000000000000000000000000000000000000600052604160045260246000fd5b6000601f19601f8301169050919050565b6122078161205b565b811461221257600080fd5b50565b61221e8161206d565b811461222957600080fd5b50565b61223581612099565b811461224057600080fd5b5056fea26469706673582212201c6d975ec9338040459516aafe6cb02aaa87653423585ed8aa4d7f0f8d4aaa9764736f6c63430008000033",
  "immutableReferences": {},
  "source": "// SPDX-License-Identifier: MIT\r\npragma solidity ^0.8.0;\r\n\r\ncontract HealthMonitor {\r\n    address public owner;\r\n    address[] public doctorList;\r\n    address[] public ambulanceList;\r\n    mapping(address => bool) public doctors;\r\n    mapping(address => uint) public ambulanceRanks; // Mapping of ambulance to their ranks\r\n    mapping(address => Patient) public patients;\r\n    mapping(address => address[]) public doctorPatients; // Mapping of doctor to their assigned patients\r\n\r\n    struct Patient {\r\n        bool registered;\r\n        string name;\r\n        uint age;\r\n        bool ambulanceNeeded;\r\n        address assignedAmbulance;\r\n        address assignedDoctor;\r\n    }\r\n\r\n    constructor() {\r\n        owner = msg.sender;\r\n    }\r\n\r\n    modifier onlyOwner() {\r\n        require(msg.sender == owner, \"Only owner can call this function\");\r\n        _;\r\n    }\r\n\r\n    modifier onlyRegistered() {\r\n        require(patients[msg.sender].registered, \"Patient not registered\");\r\n        _;\r\n    }\r\n\r\n    modifier onlyDoctor() {\r\n        require(doctors[msg.sender], \"Only doctors can call this function\");\r\n        _;\r\n    }\r\n\r\n    function registerPatient(string memory name, uint age) external {\r\n        require(!patients[msg.sender].registered, \"Already registered\");\r\n        patients[msg.sender].registered = true;\r\n        patients[msg.sender].name = name;\r\n        patients[msg.sender].age = age;\r\n    }\r\n\r\n    function registerDoctor(address doctor) external onlyOwner {\r\n        require(!doctors[doctor], \"Doctor already registered\");\r\n        doctors[doctor] = true;\r\n        doctorList.push(doctor);\r\n    }\r\n\r\n    function registerAmbulance(address _ambulance, uint rank) external onlyOwner {\r\n        ambulanceRanks[_ambulance] = rank;\r\n        ambulanceList.push(_ambulance);\r\n    }\r\n\r\n    function handleHealthCondition(bool criticalCondition) external onlyRegistered {\r\n        Patient storage patient = patients[msg.sender];\r\n\r\n        if (criticalCondition) {\r\n            patient.ambulanceNeeded = true;\r\n            if (patient.assignedAmbulance == address(0)) {\r\n                patient.assignedAmbulance = _assignAmbulance();\r\n            }\r\n            if (patient.assignedDoctor == address(0)) {\r\n                address assignedDoctor = _assignDoctor();\r\n                patient.assignedDoctor = assignedDoctor;\r\n                doctorPatients[assignedDoctor].push(msg.sender);\r\n            }\r\n        }\r\n    }\r\n\r\n    function getPatientInfo(address patientAddress) external view returns (\r\n        string memory name,\r\n        uint age,\r\n        bool ambulanceNeeded,\r\n        address assignedAmbulance,\r\n        address assignedDoctor\r\n    ) {\r\n        Patient storage patient = patients[patientAddress];\r\n        return (\r\n            patient.name,\r\n            patient.age,\r\n            patient.ambulanceNeeded,\r\n            patient.assignedAmbulance,\r\n            patient.assignedDoctor\r\n        );\r\n    }\r\n\r\n    function _assignDoctor() internal view returns (address) {\r\n        uint minPatients = type(uint).max;\r\n        address selectedDoctor = address(0);\r\n\r\n        for (uint i = 0; i < doctorList.length; i++) {\r\n            if (doctorPatients[doctorList[i]].length < minPatients) {\r\n                minPatients = doctorPatients[doctorList[i]].length;\r\n                selectedDoctor = doctorList[i];\r\n            }\r\n        }\r\n\r\n        return selectedDoctor;\r\n    }\r\n\r\n    function _assignAmbulance() internal view returns (address) {\r\n        uint highestRank = 0;\r\n        address selectedAmbulance = address(0);\r\n\r\n        for (uint i = 0; i < ambulanceList.length; i++) {\r\n            if (ambulanceRanks[ambulanceList[i]] > highestRank) {\r\n                highestRank = ambulanceRanks[ambulanceList[i]];\r\n                selectedAmbulance = ambulanceList[i];\r\n            }\r\n        }\r\n\r\n        return selectedAmbulance;\r\n    }\r\n\r\n    function getAvailableDoctors() external view returns (address[] memory) {\r\n        return doctorList;\r\n    }\r\n\r\n    function getAssignedPatients() external onlyDoctor view returns (address[] memory) {\r\n        return doctorPatients[msg.sender];\r\n    }\r\n\r\n    function getAssignedPatientCount() external onlyDoctor view returns (uint) {\r\n        return doctorPatients[msg.sender].length;\r\n    }\r\n\r\n    function getAmbulances() external view returns (address[] memory, uint[] memory) {\r\n        uint[] memory ranks = new uint[](ambulanceList.length);\r\n        for (uint i = 0; i < ambulanceList.length; i++) {\r\n            ranks[i] = ambulanceRanks[ambulanceList[i]];\r\n        }\r\n        return (ambulanceList, ranks);\r\n    }\r\n\r\n    function getDoctors() external view returns (address[] memory) {\r\n        return doctorList;\r\n    }\r\n}\r\n",
  "sourcePath": "C:\\Users\\5EIN\\OneDrive\\Desktop\\Health\\contracts\\HealthMonitor.sol",
  "compiler": {
    "name": "solc",
    "version": "0.8.0+commit.c7dfd78e.Emscripten.clang"
  },
  "schemaVersion": "3.4.16",
  "updatedAt": "2024-08-24T21:11:19.040Z",
  "networkType": "ethereum",
  "devdoc": {
    "kind": "dev",
    "methods": {},
    "version": 1
  },
  "userdoc": {
    "kind": "user",
    "methods": {},
    "version": 1
  }
}